{
  "_format": "hh-sol-artifact-1",
  "contractName": "MicroBlog",
  "sourceName": "contracts/MicroBlog.sol",
  "abi": [
    {
      "anonymous": false,
      "inputs": [
        {
          "indexed": true,
          "internalType": "address",
          "name": "author",
          "type": "address"
        },
        {
          "indexed": false,
          "internalType": "string",
          "name": "content",
          "type": "string"
        },
        {
          "indexed": false,
          "internalType": "uint256",
          "name": "timestamp",
          "type": "uint256"
        }
      ],
      "name": "NewPost",
      "type": "event"
    },
    {
      "inputs": [],
      "name": "getPosts",
      "outputs": [
        {
          "components": [
            {
              "internalType": "address",
              "name": "author",
              "type": "address"
            },
            {
              "internalType": "string",
              "name": "content",
              "type": "string"
            },
            {
              "internalType": "uint256",
              "name": "timestamp",
              "type": "uint256"
            }
          ],
          "internalType": "struct MicroBlog.Post[]",
          "name": "",
          "type": "tuple[]"
        }
      ],
      "stateMutability": "view",
      "type": "function"
    },
    {
      "inputs": [
        {
          "internalType": "address",
          "name": "_author",
          "type": "address"
        }
      ],
      "name": "getPostsByAuthor",
      "outputs": [
        {
          "components": [
            {
              "internalType": "address",
              "name": "author",
              "type": "address"
            },
            {
              "internalType": "string",
              "name": "content",
              "type": "string"
            },
            {
              "internalType": "uint256",
              "name": "timestamp",
              "type": "uint256"
            }
          ],
          "internalType": "struct MicroBlog.Post[]",
          "name": "",
          "type": "tuple[]"
        }
      ],
      "stateMutability": "view",
      "type": "function"
    },
    {
      "inputs": [
        {
          "internalType": "string",
          "name": "_content",
          "type": "string"
        }
      ],
      "name": "store",
      "outputs": [],
      "stateMutability": "nonpayable",
      "type": "function"
    }
  ],
  "bytecode": "0x608060405234801561001057600080fd5b50610ddd806100206000396000f3fe608060405234801561001057600080fd5b50600436106100415760003560e01c8063131a06801461004657806341f3004a14610062578063f4ab249914610080575b600080fd5b610060600480360381019061005b91906106eb565b6100b0565b005b61006a6101c8565b604051610077919061091f565b60405180910390f35b61009a6004803603810190610095919061096d565b610319565b6040516100a7919061091f565b60405180910390f35b600060405180606001604052803373ffffffffffffffffffffffffffffffffffffffff16815260200183815260200142815250908060018154018082558091505060019003906000526020600020906003020160009091909190915060008201518160000160006101000a81548173ffffffffffffffffffffffffffffffffffffffff021916908373ffffffffffffffffffffffffffffffffffffffff16021790555060208201518160010190816101689190610ba6565b506040820151816002015550503373ffffffffffffffffffffffffffffffffffffffff167f4220cd30ee23a1a4323898d66dc49f1590b9863d860cf84c674c8614e18d496b82426040516101bd929190610cd1565b60405180910390a250565b60606000805480602002602001604051908101604052809291908181526020016000905b8282101561031057838290600052602060002090600302016040518060600160405290816000820160009054906101000a900473ffffffffffffffffffffffffffffffffffffffff1673ffffffffffffffffffffffffffffffffffffffff1673ffffffffffffffffffffffffffffffffffffffff168152602001600182018054610275906109c9565b80601f01602080910402602001604051908101604052809291908181526020018280546102a1906109c9565b80156102ee5780601f106102c3576101008083540402835291602001916102ee565b820191906000526020600020905b8154815290600101906020018083116102d157829003601f168201915b50505050508152602001600282015481525050815260200190600101906101ec565b50505050905090565b60606000808054905067ffffffffffffffff81111561033b5761033a6105c0565b5b60405190808252806020026020018201604052801561037457816020015b61036161055a565b8152602001906001900390816103595790505b50905060005b600080549050811015610550578373ffffffffffffffffffffffffffffffffffffffff16600082815481106103b2576103b1610d01565b5b906000526020600020906003020160000160009054906101000a900473ffffffffffffffffffffffffffffffffffffffff1673ffffffffffffffffffffffffffffffffffffffff160361053d576000818154811061041357610412610d01565b5b90600052602060002090600302016040518060600160405290816000820160009054906101000a900473ffffffffffffffffffffffffffffffffffffffff1673ffffffffffffffffffffffffffffffffffffffff1673ffffffffffffffffffffffffffffffffffffffff168152602001600182018054610492906109c9565b80601f01602080910402602001604051908101604052809291908181526020018280546104be906109c9565b801561050b5780601f106104e05761010080835404028352916020019161050b565b820191906000526020600020905b8154815290600101906020018083116104ee57829003601f168201915b5050505050815260200160028201548152505082828151811061053157610530610d01565b5b60200260200101819052505b808061054890610d5f565b91505061037a565b5080915050919050565b6040518060600160405280600073ffffffffffffffffffffffffffffffffffffffff16815260200160608152602001600081525090565b6000604051905090565b600080fd5b600080fd5b600080fd5b600080fd5b6000601f19601f8301169050919050565b7f4e487b7100000000000000000000000000000000000000000000000000000000600052604160045260246000fd5b6105f8826105af565b810181811067ffffffffffffffff82111715610617576106166105c0565b5b80604052505050565b600061062a610591565b905061063682826105ef565b919050565b600067ffffffffffffffff821115610656576106556105c0565b5b61065f826105af565b9050602081019050919050565b82818337600083830152505050565b600061068e6106898461063b565b610620565b9050828152602081018484840111156106aa576106a96105aa565b5b6106b584828561066c565b509392505050565b600082601f8301126106d2576106d16105a5565b5b81356106e284826020860161067b565b91505092915050565b6000602082840312156107015761070061059b565b5b600082013567ffffffffffffffff81111561071f5761071e6105a0565b5b61072b848285016106bd565b91505092915050565b600081519050919050565b600082825260208201905092915050565b6000819050602082019050919050565b600073ffffffffffffffffffffffffffffffffffffffff82169050919050565b600061078b82610760565b9050919050565b61079b81610780565b82525050565b600081519050919050565b600082825260208201905092915050565b60005b838110156107db5780820151818401526020810190506107c0565b60008484015250505050565b60006107f2826107a1565b6107fc81856107ac565b935061080c8185602086016107bd565b610815816105af565b840191505092915050565b6000819050919050565b61083381610820565b82525050565b60006060830160008301516108516000860182610792565b506020830151848203602086015261086982826107e7565b915050604083015161087e604086018261082a565b508091505092915050565b60006108958383610839565b905092915050565b6000602082019050919050565b60006108b582610734565b6108bf818561073f565b9350836020820285016108d185610750565b8060005b8581101561090d57848403895281516108ee8582610889565b94506108f98361089d565b925060208a019950506001810190506108d5565b50829750879550505050505092915050565b6000602082019050818103600083015261093981846108aa565b905092915050565b61094a81610780565b811461095557600080fd5b50565b60008135905061096781610941565b92915050565b6000602082840312156109835761098261059b565b5b600061099184828501610958565b91505092915050565b7f4e487b7100000000000000000000000000000000000000000000000000000000600052602260045260246000fd5b600060028204905060018216806109e157607f821691505b6020821081036109f4576109f361099a565b5b50919050565b60008190508160005260206000209050919050565b60006020601f8301049050919050565b600082821b905092915050565b600060088302610a5c7fffffffffffffffffffffffffffffffffffffffffffffffffffffffffffffffff82610a1f565b610a668683610a1f565b95508019841693508086168417925050509392505050565b6000819050919050565b6000610aa3610a9e610a9984610820565b610a7e565b610820565b9050919050565b6000819050919050565b610abd83610a88565b610ad1610ac982610aaa565b848454610a2c565b825550505050565b600090565b610ae6610ad9565b610af1818484610ab4565b505050565b5b81811015610b1557610b0a600082610ade565b600181019050610af7565b5050565b601f821115610b5a57610b2b816109fa565b610b3484610a0f565b81016020851015610b43578190505b610b57610b4f85610a0f565b830182610af6565b50505b505050565b600082821c905092915050565b6000610b7d60001984600802610b5f565b1980831691505092915050565b6000610b968383610b6c565b9150826002028217905092915050565b610baf826107a1565b67ffffffffffffffff811115610bc857610bc76105c0565b5b610bd282546109c9565b610bdd828285610b19565b600060209050601f831160018114610c105760008415610bfe578287015190505b610c088582610b8a565b865550610c70565b601f198416610c1e866109fa565b60005b82811015610c4657848901518255600182019150602085019450602081019050610c21565b86831015610c635784890151610c5f601f891682610b6c565b8355505b6001600288020188555050505b505050505050565b600082825260208201905092915050565b6000610c94826107a1565b610c9e8185610c78565b9350610cae8185602086016107bd565b610cb7816105af565b840191505092915050565b610ccb81610820565b82525050565b60006040820190508181036000830152610ceb8185610c89565b9050610cfa6020830184610cc2565b9392505050565b7f4e487b7100000000000000000000000000000000000000000000000000000000600052603260045260246000fd5b7f4e487b7100000000000000000000000000000000000000000000000000000000600052601160045260246000fd5b6000610d6a82610820565b91507fffffffffffffffffffffffffffffffffffffffffffffffffffffffffffffffff8203610d9c57610d9b610d30565b5b60018201905091905056fea2646970667358221220a389dfd1c3a961be7c1fc9902673721e871df0625ef5cee84783bb776877b37164736f6c63430008120033",
  "linkReferences": {},
  "deployedLinkReferences": {}
}